:10070D003C76657273696F6E2D7465737465723E98
:10071D0000202020202D2D2D6A61636B5F6368659D
:10072D006E00506F77657220626F617264202020B9
:10073D002020005475726E20626F6172642020203B
:10074D005B315D004C6566742068616E642020200D
:10075D00205B365D0052696768742068616E6420A5
:10076D0020205B375D00486561642D4C4544202099
:10077D002020205B335D0048616E642D4C45442084
:10078D00202020205B345D005475726E20626F61F5
:10079D0072642020205B325D004D61696E20626FB6
:1007AD006172642020202020200054657374696ECE
:1007BD00672E2E2E2E2020202020002020202020CD
:1007CD00202020202020202020202000AA55CC00F1
:1007DD00000000000000000000000000000000000C
:0E07ED000000000000000000000000000000FE
:1007FB0060640068000000000000000000000000C2
:10080B0000000000000000000000000000000000DD
:10081B0000000000000000000000000000000000CD
:10082B0000000000000000000000000000000000BD
:10083B0000000000000000000000000000000000AD
:10084B00000000000000000000000000000000009D
:10085B0000000000000000004100000041006700A4
:10086B00410065004100CC0041006600606400015E
:10087B00000000000000000000000000000000006D
:10088B00000000000000000000000000000000005D
:10089B00000000000000000000000000000000004D
:1008AB00000000000000000000000000000000003D
:1008BB00000000000000000000000000000000002D
:1008CB00000000000000000000000000000000001D
:0408DB000000000019
:040003007F1E7E00DE
:100007009000F2EEF0A3EFF09000F274FFF5F0121B
:0C001700069445F06005120CEB80ED2211
:080CEB007F167E80DEFEDFFCB7
:010CF30022DE
:100BF6009000F1EFF0120CD140FB9000F1E0FF33D2
:100C06009297EFA2E69296A2E59295A2E49294C2FA
:100C160091C292C293D293C293A2E39297A2E29216
:100C260096A2E19295139294C291C292C293D293E4
:0D0C3600C293C291C2927F057E00020007AA
:100C43009000F1EFF0120CD140FB9000F1E0FF3384
:100C53009297EFA2E69296A2E59295A2E49294D29D
:100C630091C292C293D293C293A2E39297A2E292C9
:100C730096A2E19295139294D291C292C293D29387
:090C8300C2937F057E0002000708
:0E0CD100C291D292D293A2979200C293A20037
:010CDF0022F2
:060BA7007BFF7D017F01D0
:0B0BAD009000EDEBF0A3EAF0A3E9F0EC
:100BB800EFB40104A37480F0EFB402069000F0745F
:100BC800C0F09000F0E02D14FFF0120BF69000ED4D
:100BD800E0FBA3E0FAA3E0F9120665FF600F120C30
:0D0BE800439000EEE475F00112067E80E0FF
:010BF50022DD
:100C8C007F0A7E001200077F28120BF67F28120BBA
:0B0C9C00F67F0C120BF67F01020BF636
:100CBD00EFB47F0F900066E004F0E0B41E05E4F0A1
:040CCD0075E7602245
:050A48009000E7EDF055
:100A4D0074FFA3F0A3F0ED70059000E704F09000A3
:100A5D00E7E0FF14F0EF6051120665FF9000E8E04B
:100A6D00F0A3E06FF0E4FD9000E9E09000E830E0E5
:100A7D0022E0C313FEA3E013FF9000E8EEF0A3EF16
:100A8D00F0EE64A0FEEF6401FF9000E8EEF0A3EF3E
:100A9D00F08008E0C313F0A3E013F00DEDB408C728
:100AAD00740129F9E43AFA80A59000E8E0FEA3E08C
:010ABD00FF39
:010ABE002215
:050ABF009000CFEDF0F6
:100AC40074FFA3F0A3F0ED70059000CF04F0900044
:100AD400CFE0FF14F0EF6051120665FF9000D0E004
:100AE400F0A3E06FF0E4FD9000D1E09000D030E09E
:100AF40022E0C313FEA3E013FF9000D0EEF0A3EFB7
:100B0400F0EE64A0FEEF6401FF9000D0EEF0A3EFDE
:100B1400F08008E0C313F0A3E013F00DEDB408C7B0
:100B2400740129F9E43AFA80A59000D0E0FEA3E02C
:010B3400FFC1
:010B3500229D
:100CA700759850758920438E40758DEE858D8BD252
:060CB700AFD2ACD28E2288
:040B36007B037D7848
:0B0B3A009000D9EFF0A3EDF0A3EBF06A
:100B4500E478DC7C007D017BFF7A0779D9FE7F0B99
:100B550012063F9000D9E09000DFF0A37403F0E4A3
:100B6500A3F09000DAE09000E2F0E4A3F09000DB5F
:100B7500E09000E4F07B017A0079DF7D06120A48F7
:100B8500EF9000E5F0EEA3F0E4FF74DC2FF582E4CE
:100B95003400F583E0F5993099FDC2990FEFB40B58
:010BA500E966
:010BA600222C
:0608E0007B017A0079D3D0
:0B08E6009000D9EBF0A3EAF0A3E9F0CA
:1008F10078DC7C007D017BFF7A0779E47E007F1143
:1009010012063F9000DC7476F09000D9E0FBA3E082
:10091100FAA3E0F91206AAFDACF0EC24309000DD58
:10092100F0A3742EF0AF05EF2430A3F0A3742EF0E2
:100931009000021206D5FDACF0EC24309000E1F0FD
:10094100A37420F0A3F0AF05E4C4F854F0C8EFC4D9
:10095100540F482430A3F09000021206D5540F24FE
:10096100309000E5F0A3742DF09000041206D5AC90
:10097100F0ECC4540F24309000E7F0EC540F243015
:10098100A3F0A3742DF09000041206D5FDACF0EC99
:10099100C4F854F0C8EDC4540F48540F24309000EB
:1009A100EAF0AF05EF540F2430A3F0E4A3F07B018C
:0B09B1007A0079DC7D017F02020BADB3
:0A0CE0007F64900001E4F0A3DFFC44
:010CEA0022E7
:10002600E49000D2F078D37C007D017BFF7A0779DB
:10003600F5FE7F0612063FC290120C8C120CA77AB0
:1000460007790D120BA77BFF7A07791E7D017F02C8
:10005600120BAD7FE87E031200077F05120B3612E6
:100066000003900001E07002A3E06035900003E019
:10007600FEA3E0FF4E602AA3E0FCA3E0FD4C602156
:100086009000D27401F0900001E0FBA3E09000D351
:10009600CBF0A3EBF0A3EEF0A3EFF0A3ECF0A3ED0F
:1000A600F0120CE07F01120B36120003900001E003
:1000B6007002A3E06035900003E0FEA3E0FF4E600F
:1000C6002AA3E0FCA3E0FD4C60219000D27402F06C
:1000D600900001E0FBA3E09000D3CBF0A3EBF0A3EC
:1000E600EEF0A3EFF0A3ECF0A3EDF0120CE07B032F
:1000F6007D787F06120B3A120003900001E0700231
:10010600A3E06035900003E0FEA3E0FF4E602AA363
:10011600E0FCA3E0FD4C60219000D27403F0900057
:1001260001E0FBA3E09000D3CBF0A3EBF0A3EEF04D
:10013600A3EFF0A3ECF0A3EDF0120CE07B037D78C7
:100146007F07120B3A120003900001E07002A3E051
:100156006035900003E0FEA3E0FF4E602AA3E0FCBA
:10016600A3E0FD4C60219000D27404F0900001E001
:10017600FBA3E09000D3CBF0A3EBF0A3EEF0A3EF4C
:10018600F0A3ECF0A3EDF0120CE07B037D787F0387
:10019600120B3A120003900001E07002A3E06035F2
:1001A600900003E0FEA3E0FF4E602AA3E0FCA3E07C
:1001B600FD4C60219000D27405F0900001E0FBA395
:1001C600E09000D3CBF0A3EBF0A3EEF0A3EFF0A307
:1001D600ECF0A3EDF0120CE07B037D787F04120BAC
:1001E6003A120003900001E07002A3E0603590002F
:1001F60003E0FEA3E0FF4E602AA3E0FCA3E0FD4C73
:1002060060219000D27406F0900001E0FBA3E0901C
:1002160000D3CBF0A3EBF0A3EEF0A3EFF0A3ECF04A
:10022600A3EDF0120CE07B037D787F02120B3A12ED
:100236000003900001E07002A3E06035900003E047
:10024600FEA3E0FF4E602AA3E0FCA3E0FD4C602184
:100256009000D27407F0900001E0FBA3E09000D379
:10026600CBF0A3EBF0A3EEF0A3EFF0A3ECF0A3ED3D
:10027600F0120CE0758DFA858D8B7B037D787F817E
:10028600120B3A120003900001E07002A3E0603501
:10029600900003E0FEA3E0FF4E602AA3E0FCA3E08B
:1002A600FD4C60219000D27408F0900001E0FBA3A1
:1002B600E09000D3CBF0A3EBF0A3EEF0A3EFF0A316
:1002C600ECF0A3EDF0758DEE858D8B120CE09000B1
:1002D600D2E07003020382B4010A7A07792F120B67
:1002E600A71208E09000D2E0B4020C7BFF7A0779EF
:1002F60040120BA91208E09000D2E0B4030C7BFF79
:100306007A077951120BA91208E09000D2E0B404E2
:100316000C7BFF7A077962120BA91208E09000D2D3
:10032600E0B4050C7BFF7A077973120BA91208E07B
:100336009000D2E0B4060C7BFF7A077984120BA9F1
:100346001208E09000D2E0B4070C7BFF7A0779959B
:10035600120BA91208E09000D2E0B4080C7BFF7AD9
:100366000779A6120BA91208E0E49000D2F0A3F0D8
:10037600A3F0A3F0A3F0A3F0A3F080167BFF7A0707
:1003860079B7120BA97BFF7A0779C87D017F021224
:0C0396000BAD7F2C7E01120007020060FE
:030023000203A233
:1003A200C0E0C083C082C0D075D000C001C002C00E
:0903B20003C004C005C006C00729
:1003BB00209803020558C2989000CCE0FF2468F502
:1003CB0082E43400F583E599F074682FF582E43408
:1003DB0000F583E0FF120CBD900000E07070900000
:1003EB00CCE0FF701074682FF582E43400F583E0E5
:1003FB00B4AA0280159000CCE0FFB401122468F57A
:10040B0082E43400F583E0B4AA059000CC803590EB
:10041B0000CCE0FFB401152468F582E43400F583C9
:10042B00E0B455089000CC7402F080229000CCE030
:10043B00FFB402152468F582E43400F583E0B4CCF4
:10044B00089000007401F080059000CCE4F090005F
:10045B0000E064016003020558900067E0640160EE
:10046B000302053B900065E0C394464014900000E6
:10047B00E4F0900067F09000CCF0900065F002057E
:10048B0058900065E014F0E0600302053B7B017AB5
:10049B0000796B90006DE02403FD120ABFAD07AC31
:1004AB000690006DE0FB246FF582E43400F583E0E9
:1004BB00FE746E2BF582E43400F583E0FBEB6D707C
:1004CB0002EC6E70509000CDF090006DE0C313FF06
:1004DB009000CDE0FDC39F503CA3E0FC246EF58261
:1004EB00E43400F583E0FE746F2CF582E43400F500
:1004FB0083E0FBEBFFED25E02401F582E43400F50E
:10050B0083EEF0A3EFF09000CEE02402F09000CD4C
:10051B00E004F080B4900000E4F0900067F09000ED
:10052B00CCF0900065F09000CEF09000CDF0801DE7
:10053B009000CCE0B405109000677401F090006D52
:0D054B00E02402900065F09000CCE004F088
:10055800D007D006D005D004D003D002D001D0D027
:07056800D082D083D0E03205
:030000000209BC36
:0C09BC00787FE4F6D8FD758120020A0364
:10056F00E709F608DFFA8046E709F208DFFA803E6E
:10057F0088828C83E709F0A3DFFA8032E309F6085B
:10058F00DFFA8078E309F208DFFA807088828C83C3
:10059F00E309F0A3DFFA806489828A83E0A3F60877
:1005AF00DFFA805889828A83E0A3F208DFFA804C51
:1005BF0080D280FA80C680D4806980F28033801028
:1005CF0080A680EA809A80A880DA80E280CA803391
:1005DF0089828A83ECFAE493A3C8C582C8CCC58309
:1005EF00CCF0A3C8C582C8CCC583CCDFE9DEE780D9
:1005FF000D89828A83E493A3F608DFF9ECFAA9F058
:10060F00EDFB2289828A83ECFAE0A3C8C582C8CCAD
:10061F00C583CCF0A3C8C582C8CCC583CCDFEADEC6
:10062F00E880DB89828A83E493A3F208DFF980CC28
:10063F0088F0EF60010E4E60C388F0ED2402B40421
:10064F000050B9F582EB2402B4040050AF232345C8
:06065F0082239005BF7329
:10066500BB010689828A83E0225002E722BBFE0293
:09067500E32289828A83E49322C6
:10067E00C5F0F8A3E028F0C5F0F8E5821582700207
:06068E001583E038F022A4
:10069400A3F8E0C5F025F0F0E58215827002158319
:0606A400E0C838F0E82276
:1006AA00BB010A89828A83E0F5F0A3E0225006871B
:1006BA00F009E71922BBFE07E3F5F009E3192289DD
:0B06CA00828A83E493F5F07401932210
:1006D500BB0110E58229F582E5833AF583E0F5F063
:1006E500A3E0225009E92582F886F008E622BBFE40
:1006F5000AE92582F8E2F5F008E222E5832AF58386
:08070500E993F5F0A3E993224A
:1009C800020026E493A3F8E493A34003F68001F21F
:1009D80008DFF48029E493A3F85407240CC8C33330
:1009E800C4540F4420C8834004F456800146F6DFFF
:1009F800E4800B01020408102040809007FBE47E8D
:100A0800019360BCA3FF543F30E509541FFEE493F3
:100A1800A360010ECF54C025E060A840B8E493A3BA
:100A2800FAE493A3F8E493A3C8C582C8CAC583CAE5
:100A3800F0A3C8C582C8CAC583CADFE9DEE780BE9D
:0108DF000018
:00000001FF
