:100785003C76657273696F6E2D7465737465723E20
:1007950000202020202D2D2D6A61636B5F63686525
:1007A5006E00506F77657220626F61726420202041
:1007B5002020005475726E20626F617264202020C3
:1007C5005B315D004C6566742068616E6420202095
:1007D500205B365D0052696768742068616E64202D
:1007E50020205B375D00486561642D4C4544202021
:1007F5002020205B335D0048616E642D4C4544200C
:10080500202020205B345D005475726E20626F617C
:1008150072642020205B325D0054657374696E67D5
:100825002E2E2E2E202020202000202020202020AB
:100835002020202020202020202000AA55CC0000A8
:1008450000000000000000000000000000000000A3
:0D0855000000000000000000000000000096
:1006A000606400680000000000000000000000001E
:1006B000000000000000000000000000000000003A
:1006C000000000000000000000000000000000002A
:1006D000000000000000000000000000000000001A
:1006E000000000000000000000000000000000000A
:1006F00000000000000000000000000000000000FA
:100700000000000000000000410000004100670000
:10071000410065004100CC004100660060640001BA
:1007200000000000000000000000000000000000C9
:1007300000000000000000000000000000000000B9
:1007400000000000000000000000000000000000A9
:100750000000000000000000000000000000000099
:100760000000000000000000000000000000000089
:100770000000000000000000000000000000000079
:040780000000000075
:040003007F1E7E00DE
:100007009000F2EEF0A3EFF09000F274FFF5F0121B
:0C001700062745F06005120C6D80ED22FC
:080C6D007F167E80DEFEDFFC35
:010C7500225C
:100B78009000F1EFF0120C5340FB9000F1E0FF33CE
:100B88009297EFA2E69296A2E59295A2E49294C279
:100B980091C292C293D293C293A2E39297A2E29295
:100BA80096A2E19295139294C291C292C293D29363
:0D0BB800C293C291C2927F057E0002000729
:100BC5009000F1EFF0120C5340FB9000F1E0FF3381
:100BD5009297EFA2E69296A2E59295A2E49294D21C
:100BE50091C292C293D293C293A2E39297A2E29248
:100BF50096A2E19295139294D291C292C293D29306
:090C0500C2937F057E0002000786
:0E0C5300C291D292D293A2979200C293A200B5
:010C61002270
:060B29007BFF7D017F014E
:0B0B2F009000EDEBF0A3EAF0A3E9F06A
:100B3A00EFB40104A37480F0EFB402069000F074DD
:100B4A00C0F09000F0E02D14FFF0120B789000ED49
:100B5A00E0FBA3E0FAA3E0F91205F8FF600F120B1D
:0D0B6A00C59000EEE475F00112061180E068
:010B7700225B
:100C0E007F0A7E001200077F28120B787F28120BB6
:0B0C1E00787F0C120B787F01020B782E
:100C3F00EFB47F0F900066E004F0E0B41E05E4F01F
:040C4F0075E76022C3
:0509CA009000E7EDF0D4
:1009CF0074FFA3F0A3F0ED70059000E704F0900022
:1009DF00E7E0FF14F0EF60511205F8FF9000E8E038
:1009EF00F0A3E06FF0E4FD9000E9E09000E830E064
:1009FF0022E0C313FEA3E013FF9000E8EEF0A3EF95
:100A0F00F0EE64A0FEEF6401FF9000E8EEF0A3EFBC
:100A1F00F08008E0C313F0A3E013F00DEDB408C7A6
:100A2F00740129F9E43AFA80A59000E8E0FEA3E00A
:010A3F00FFB7
:010A40002293
:050A41009000CFEDF074
:100A460074FFA3F0A3F0ED70059000CF04F09000C2
:100A5600CFE0FF14F0EF60511205F8FF9000D0E0F0
:100A6600F0A3E06FF0E4FD9000D1E09000D030E01C
:100A760022E0C313FEA3E013FF9000D0EEF0A3EF35
:100A8600F0EE64A0FEEF6401FF9000D0EEF0A3EF5D
:100A9600F08008E0C313F0A3E013F00DEDB408C72F
:100AA600740129F9E43AFA80A59000D0E0FEA3E0AB
:010AB600FF40
:010AB700221C
:100C2900759850758920438E40758DEE858D8BD2D0
:060C3900AFD2ACD28E2206
:040AB8007B037D78C7
:0B0ABC009000D9EFF0A3EDF0A3EBF0E9
:100AC700E478DC7C007D017BFF7A087940FE7F0BB0
:100AD7001205D29000D9E09000DFF0A37403F0E490
:100AE700A3F09000DAE09000E2F0E4A3F09000DBDE
:100AF700E09000E4F07B017A0079DF7D061209CAF5
:100B0700EF9000E5F0EEA3F0E4FF74DC2FF582E44C
:100B17003400F583E0F5993099FDC2990FEFB40BD6
:010B2700E9E4
:010B280022AA
:060862007B017A0079D34E
:0B0868009000D9EBF0A3EAF0A3E9F048
:1008730078DC7C007D017BFF7A08794B7E007F1159
:100883001205D29000DC7476F09000D9E0FBA3E06F
:10089300FAA3E0F912063DFDACF0EC24309000DD44
:1008A300F0A3742EF0AF05EF2430A3F0A3742EF061
:1008B300900002120668FDACF0EC24309000E1F0E9
:1008C300A37420F0A3F0AF05E4C4F854F0C8EFC458
:1008D300540F482430A3F0900002120668540F24EA
:1008E300309000E5F0A3742DF0900004120668AC7C
:1008F300F0ECC4540F24309000E7F0EC540F243094
:10090300A3F0A3742DF0900004120668FDACF0EC84
:10091300C4F854F0C8EDC4540F48540F2430900069
:10092300EAF0AF05EF540F2430A3F0E4A3F07B010A
:0B0933007A0079DC7D017F02020B2FAF
:0A0C62007F64900001E4F0A3DFFCC2
:010C6C002265
:10002600E49000D2F078D37C007D017BFF7A0879DA
:100036005CFE7F061205D2C290120C0E120C297AB3
:10004600077985120B297BFF7A0779967D017F0256
:10005600120B2F7FE87E031200077F05120AB812E3
:100066000003900001E07002A3E06035900003E019
:10007600FEA3E0FF4E602AA3E0FCA3E0FD4C602156
:100086009000D27401F0900001E0FBA3E09000D351
:10009600CBF0A3EBF0A3EEF0A3EFF0A3ECF0A3ED0F
:1000A600F0120C627F01120AB8120003900001E000
:1000B6007002A3E06035900003E0FEA3E0FF4E600F
:1000C6002AA3E0FCA3E0FD4C60219000D27402F06C
:1000D600900001E0FBA3E09000D3CBF0A3EBF0A3EC
:1000E600EEF0A3EFF0A3ECF0A3EDF0120C627B03AD
:1000F6007D787F06120ABC120003900001E07002B0
:10010600A3E06035900003E0FEA3E0FF4E602AA363
:10011600E0FCA3E0FD4C60219000D27403F0900057
:1001260001E0FBA3E09000D3CBF0A3EBF0A3EEF04D
:10013600A3EFF0A3ECF0A3EDF0120C627B037D7845
:100146007F07120ABC120003900001E07002A3E0D0
:100156006035900003E0FEA3E0FF4E602AA3E0FCBA
:10016600A3E0FD4C60219000D27404F0900001E001
:10017600FBA3E09000D3CBF0A3EBF0A3EEF0A3EF4C
:10018600F0A3ECF0A3EDF0120C627B037D787F0305
:10019600120ABC120003900001E07002A3E0603571
:1001A600900003E0FEA3E0FF4E602AA3E0FCA3E07C
:1001B600FD4C60219000D27405F0900001E0FBA395
:1001C600E09000D3CBF0A3EBF0A3EEF0A3EFF0A307
:1001D600ECF0A3EDF0120C627B037D787F04120A2B
:1001E600BC120003900001E07002A3E060359000AD
:1001F60003E0FEA3E0FF4E602AA3E0FCA3E0FD4C73
:1002060060219000D27406F0900001E0FBA3E0901C
:1002160000D3CBF0A3EBF0A3EEF0A3EFF0A3ECF04A
:10022600A3EDF0120C627B037D787F02120ABC12EA
:100236000003900001E07002A3E06035900003E047
:10024600FEA3E0FF4E602AA3E0FCA3E0FD4C602184
:100256009000D27407F0900001E0FBA3E09000D379
:10026600CBF0A3EBF0A3EEF0A3EFF0A3ECF0A3ED3D
:10027600F0120C629000D2E07003020315B4010A7A
:100286007A0779A7120B291208629000D2E0B4020D
:100296000C7BFF7A0779B8120B2B1208629000D2FA
:1002A600E0B4030C7BFF7A0779C9120B2B120862A4
:1002B6009000D2E0B4040C7BFF7A0779DA120B2B9C
:1002C6001208629000D2E0B4050C7BFF7A0779EB46
:1002D600120B2B1208629000D2E0B4060C7BFF7A58
:1002E6000779FC120B2B1208629000D2E0B4070CBF
:1002F6007BFF7A08790D120B2B120862E49000D26C
:10030600F0A3F0A3F0A3F0A3F0A3F0A3F080167B74
:10031600FF7A08791E120B2B7BFF7A08792F7D0155
:0F0326007F02120B2F7F2C7E0112000702006056
:03002300020335A0
:10033500C0E0C083C082C0D075D000C001C002C07B
:0903450003C004C005C006C00796
:10034E002098030204EBC2989000CCE0FF2468F5DD
:10035E0082E43400F583E599F074682FF582E43475
:10036E0000F583E0FF120C3F900000E070709000EB
:10037E00CCE0FF701074682FF582E43400F583E052
:10038E00B4AA0280159000CCE0FFB401122468F5E7
:10039E0082E43400F583E0B4AA059000CC80359059
:1003AE0000CCE0FFB401152468F582E43400F58337
:1003BE00E0B455089000CC7402F080229000CCE09E
:1003CE00FFB402152468F582E43400F583E0B4CC62
:1003DE00089000007401F080059000CCE4F09000CD
:1003EE0000E0640160030204EB900067E0640160CA
:1003FE00030204CE900065E0C394464014900000C2
:10040E00E4F0900067F09000CCF0900065F00204EC
:10041E00EB900065E014F0E060030204CE7B017AFD
:10042E0000796B90006DE02403FD120A41AD07AC1C
:10043E000690006DE0FB246FF582E43400F583E056
:10044E00FE746E2BF582E43400F583E0FBEB6D70E9
:10045E0002EC6E70509000CDF090006DE0C313FF73
:10046E009000CDE0FDC39F503CA3E0FC246EF582CE
:10047E00E43400F583E0FE746F2CF582E43400F56D
:10048E0083E0FBEBFFED25E02401F582E43400F57B
:10049E0083EEF0A3EFF09000CEE02402F09000CDBA
:1004AE00E004F080B4900000E4F0900067F090005B
:1004BE00CCF0900065F09000CEF09000CDF0801D55
:1004CE009000CCE0B405109000677401F090006DC0
:0D04DE00E02402900065F09000CCE004F0F6
:1004EB00D007D006D005D004D003D002D001D0D095
:0704FB00D082D083D0E03273
:0300000002093EB4
:0C093E00787FE4F6D8FD75812002098561
:10050200E709F608DFFA8046E709F208DFFA803EDB
:1005120088828C83E709F0A3DFFA8032E309F608C8
:10052200DFFA8078E309F208DFFA807088828C8330
:10053200E309F0A3DFFA806489828A83E0A3F608E4
:10054200DFFA805889828A83E0A3F208DFFA804CBE
:1005520080D280FA80C680D4806980F28033801095
:1005620080A680EA809A80A880DA80E280CA8033FE
:1005720089828A83ECFAE493A3C8C582C8CCC58376
:10058200CCF0A3C8C582C8CCC583CCDFE9DEE78046
:100592000D89828A83E493A3F608DFF9ECFAA9F0C5
:1005A200EDFB2289828A83ECFAE0A3C8C582C8CC1B
:1005B200C583CCF0A3C8C582C8CCC583CCDFEADE34
:1005C200E880DB89828A83E493A3F208DFF980CC96
:1005D20088F0EF60010E4E60C388F0ED2402B4048F
:1005E2000050B9F582EB2402B4040050AF23234536
:0605F20082239005527304
:1005F800BB010689828A83E0225002E722BBFE0201
:09060800E32289828A83E4932233
:10061100C5F0F8A3E028F0C5F0F8E5821582700274
:060621001583E038F02211
:10062700A3F8E0C5F025F0F0E58215827002158386
:06063700E0C838F0E822E3
:10063D00BB010A89828A83E0F5F0A3E02250068788
:10064D00F009E71922BBFE07E3F5F009E31922894A
:0B065D00828A83E493F5F0740193227D
:10066800BB0110E58229F582E5833AF583E0F5F0D0
:10067800A3E0225009E92582F886F008E622BBFEAD
:100688000AE92582F8E2F5F008E222E5832AF583F3
:08069800E993F5F0A3E99322B8
:10094A00020026E493A3F8E493A34003F68001F29D
:10095A0008DFF48029E493A3F85407240CC8C333AE
:10096A00C4540F4420C8834004F456800146F6DF7D
:10097A00E4800B01020408102040809006A0E47E67
:10098A00019360BCA3FF543F30E509541FFEE49372
:10099A00A360010ECF54C025E060A840B8E493A339
:1009AA00FAE493A3F8E493A3C8C582C8CAC583CA64
:1009BA00F0A3C8C582C8CAC583CADFE9DEE780BE1C
:010784000074
:00000001FF
